:100000000C942A000C9447000C9447000C94470071
:100010000C9447000C9447000C9447000C94470044
:100020000C9447000C9447000C9492080C944700E1
:100030000C9447000C9404090C9447000C9447005E
:100040000C9447000C9447000C9447000C94470014
:100050000C94470011241FBECFE5D8E0DEBFCDBF12
:1000600011E0A0E6B0E0EAE9F6E102C005900D92E9
:10007000AA34B107D9F721E0AAE4B1E001C01D928A
:10008000AA36B207E1F70E9462000C944B0B0C9465
:10009000000017B887B187B987B187B916B886B19C
:1000A00086B986B186B9379A089597B18F71982B22
:1000B00097B9369A349BFECF349A84B125B190E03B
:1000C000922B08950E9481020E9452010E946808AA
:1000D00080E00E9407080E9413040E9432040E94DC
:1000E000C4080E94EC0680916901811107C00E943A
:1000F0008B01882361F10E94C90529C0813019F460
:100100000E94750724C0833069F480E00E948B014F
:10011000813319F40E94A0051AC08233C1F40E94F1
:10012000BE0615C0843039F480914A01813079F4DB
:100130000E948D050CC0853051F480E00E948B0137
:10014000C82F0E946106CA3211F40E948D05609189
:10015000690180E390E00E942401C5CF813081F0E5
:1001600028F08230B9F08330F9F008958AB3942FE3
:10017000909589238ABB8AB34623482B4ABB0895AE
:1001800087B3942F9095892387BB87B34623482B49
:1001900047BB089584B3942F9095892384BB84B37F
:1001A0004623482B44BB089581B3942F909589230F
:1001B00081BB81B34623482B41BB0895813081F038
:1001C00028F08230B9F08330F9F008958BB3942F82
:1001D000909589238BBB8BB34623482B4BBB08954B
:1001E00088B3942F9095892388BB88B34623482BE6
:1001F00048BB089585B3942F9095892385BB85B31B
:100200004623482B45BB089582B3942F90958923AC
:1002100082BB82B34623482B42BB0895813049F00C
:1002200028F0823049F0833051F00CC089B3862326
:10023000089586B38623089583B38623089580B3F3
:100240008623089580E00895E199FECF8EBB9FBB81
:100250006DBBE29AE19A0895E199FECF8EBB9FBBF8
:10026000E09A8DB3089588E480B911B882E082B92C
:1002700084E086BF089584EA86BF06B607FEFDCFF8
:10028000089584E986BF089583B984E886BF06B6D9
:1002900007FEFDCF089584E886BF06B607FEFDCFB2
:1002A00083B10895EF92FF920F931F93CF93DF9343
:1002B000C1E8D0E009E810E0FE013197F080E88065
:1002C0004E2D6FEF8F2D0E94AE004E2D6FEF8F2DB4
:1002D0000E94DE002296C017D10771F7C9E8D0E06E
:1002E0000FE810E0FE013197F080E8804E2D60E0CD
:1002F0008F2D0E94AE004E2D6FEF8F2D0E94DE00DD
:100300002296C017D10771F7DF91CF911F910F91FE
:10031000FF90EF9008952F923F924F925F926F92CD
:100320007F928F929F92AF92BF92CF92DF92EF9285
:10033000FF920F931F93CF93DF9300D01F92CDB7FF
:10034000DEB790E09C01220F331F8901000F111FBF
:10035000000F111F000F111F021B130B0F571F4F10
:10036000E12CF12C1982C9012901440C551C440CC3
:10037000551C440C551C9201281B390BD901A75759
:10038000BF4F2D0117013801F801408160E0D30112
:100390008E916D010E94DE0042011A821B82AA80AA
:1003A000BB80F4016081319780810E940E01811130
:1003B0000CC0F101EE0FFF1FE20DF31DEA0DFB1D56
:1003C000EC58FF4F208129830CC08A819B810196C4
:1003D0009B838A8392E0890E911CAA81BB8113972B
:1003E000F1F6F30140816FEFD6018C910E94DE009F
:1003F000BFEFEB1AFB0A0E5F1F4FE4E0EE16F104AD
:1004000009F680914B01F981F81719F0F0934B012F
:1004100001C0198289810F900F900F90DF91CF91C9
:100420001F910F91FF90EF90DF90CF90BF90AF9012
:100430009F908F907F906F905F904F903F902F9004
:100440000895CF93DF93C82FD0E0FE01EE0FFF1F7A
:10045000EE0FFF1FEE0FFF1FE257FF4F458160E0D9
:1004600084810E94DE0087EE93E00197F1F700C0DF
:100470000000CC0FDD1FCC0FDD1FCC0FDD1FC257DE
:10048000DF4F4D816FEF8C810E94DE0087EB9BE098
:100490000197F1F700C00000DF91CF9108950F930D
:1004A0001F93CF93DF93082F162FC62FD0E0CC0FCA
:1004B000DD1FCC0FDD1FCC0FDD1FC257DF4F498181
:1004C00060E088810E94DE004B8160E08A810E94AA
:1004D000DE00602F607F4F818E810E94DE00812FC1
:1004E0000E942102602F6295607F4F818E810E9461
:1004F000DE00812F0E942102DF91CF911F910F9189
:1005000008954F925F926F927F928F929F92AF92D7
:10051000BF92CF92DF92EF92FF920F931F93CF93F0
:10052000DF930F2EFFE8CF2EF0E0DF2EF02D0F2E01
:10053000FEE8EF2EF0E0FF2EF02DF60140816FEF88
:10054000F70180810E94AE0001E910E0C0E9D0E02F
:10055000F80140816FEF88810E94AE000F2EF3E911
:100560008F2EF0E09F2EF02D0F2EF2E9AF2EF0E04F
:10057000BF2EF02DF40140816FEFF50180810E94C4
:10058000AE000F2EF5E96F2EF0E07F2EF02D0F2E2E
:10059000F4E94F2EF0E05F2EF02DF30140816FEF74
:1005A000F20180810E94AE00F40140816FEFF501FD
:1005B00080810E94DE00F601408160E0F7018081C9
:1005C0000E94DE00F801408160E088810E94DE0028
:1005D000F301408160E0F20180810E94DE0060E072
:1005E00083E30E944F0260E082E30E944F0260E0DA
:1005F00088E20E944F0260E08CE00E944F02DF918F
:10060000CF911F910F91FF90EF90DF90CF90BF900F
:10061000AF909F908F907F906F905F904F900895D4
:100620000F931F93CF93DF93082F162FC62FD0E081
:10063000CC0FDD1FCC0FDD1FCC0FDD1FC257DF4FEE
:1006400049816FEF88810E94DE004B8160E08A81E2
:100650000E94DE00602F607F4F818E810E94DE004D
:10066000812F0E942102602F6295607F4F818E81D1
:100670000E94DE00812F0E942102DF91CF911F9105
:100680000F910895813049F028F0823049F083308D
:1006900051F00CC080E8860F0AC080EC860F07C0BE
:1006A00080E8860F04C080E8860F01C080E8642FD0
:1006B0000E944F020895682F81E00E944F02089522
:1006C0001F93CF93DF93EC01162F8881882339F095
:1006D0002196612F0E94100389918111FACFDF9139
:1006E000CF911F9108951F93CF93DF93EC01862F35
:1006F000642F122F422F0E944203612FCE010E94CD
:100700006003DF91CF911F910895DF92EF92FF92E6
:100710000F931F93CF93DF93CDB7DEB760970FB6DC
:10072000F894DEBF0FBECDBFD62E811104C080E38A
:100730000E94100337C090E05DEC31E0390FE1E03A
:10074000F0E0EC0FFD1FE90FF11D859F912D1124A5
:10075000969596959695292F220F422F440F440F78
:10076000240F821B805D8083892F992311F0932FA2
:10077000E4CF3323B9F0E32EF12C01E010E00C0FAD
:100780001D1F0E0D1F1DEC0EFD1E3150E31AF1084A
:10079000015011096D2DF80180810E9410030E1582
:1007A0001F05B1F760960FB6F894DEBF0FBECDBF40
:1007B000DF91CF911F910F91FF90EF90DF900895FF
:1007C000CF92DF92EF92FF92CF93DF936B017C0188
:1007D000C42F0E940C0AD62F6C2F8D2F0E948503E8
:1007E0006C2F8EE20E9410036D2F70E080E090E08D
:1007F0000E943A0A9B01AC01C701B6010E943F0961
:1008000020E030E048EC52E40E94C60A0E940C0A44
:10081000862F6C2F0E948503DF91CF91FF90EF9080
:10082000DF90CF9008950E944900089580E00E94D3
:10083000550090E0BC01660F771F660F771F680FA9
:10084000791F80E090E00E94380A20E030EC4FE70A
:1008500054E40E94A40920E030E048EC52E40E94F5
:10086000C60A08950E9433010895CF930E943B0168
:1008700080ED0E94440182E00E9444010E943B01FD
:1008800081ED0E9444010E944B01C82F0E9441014A
:100890009C2F9F70C073C695C695C6958C2F880FE8
:1008A000880F8C0F890FCF910895CF930E943B0141
:1008B00080ED0E94440180E00E9444010E943B01BF
:1008C00081ED0E9444010E944B01C82F0E9441010A
:1008D0009C2F9F70C077C695C695C6958C2F880FA4
:1008E000880F8C0F890FCF910895CF930E943B0101
:1008F00080ED0E94440181E00E9444010E943B017E
:1009000081ED0E9444010E944B01C82F0E944101C9
:100910009C2F9F70C077C695C695C6958C2F880F63
:10092000880F8C0F890FCF910895CF930E943B01C0
:1009300080ED0E94440184E00E9444010E943B013A
:1009400081ED0E9444010E944B01C82F0E94410189
:100950009C2F9F70C073C695C695C6958C2F880F27
:10096000880F8C0F890FCF910895CF930E943B0180
:1009700080ED0E94440185E00E9444010E943B01F9
:1009800081ED0E9444010E944B01C82F0E94410149
:100990009C2F9F70C295C170CC0F8C2F880F880F31
:1009A0008C0F890FCF910895CF930E943B0180ED6A
:1009B0000E94440186E00E9444010E943B0181EDB7
:1009C0000E9444010E944B01C82F0E9441019C2FAC
:1009D0009F70C295CF70CC0F8C2F880F880F8C0F13
:1009E000890FCF91089540EA6FEF81E00E94AE0039
:1009F0004091C1005091C2006091C3007091C40049
:100A000080919E0090919F00A091A000B091A100C4
:100A100084179507A607B70788F0E3EAF0E021E01E
:100A200080819181A281B38184179507A607B707BA
:100A300030F02F5F3596273099F701C020E01DB8C0
:100A40003DB1822F90E02091C500322B306520917E
:100A5000C600322BFC01EE0FFF1FEE0FFF1F8E0FA3
:100A60009F1FFC01E256FF4F8481282F2370932F94
:100A7000922B9DB91EB89EB186958695892B8EB90D
:100A800008958FB9779BFECF8FB10895EF92FF92B3
:100A90000F931F93CF93DF938091550180538A303A
:100AA000E8F4E6E5F1E00BE511E0819180538A304E
:100AB000A8F4E017F107C9F7C5E5D1E00F2EF8E675
:100AC000EF2EF0E0FF2EF02D6991F70181917F016B
:100AD00090E00E942401C017D107B1F781E0809314
:100AE0004A01DF91CF911F910F91FF90EF900895F0
:100AF0001092690180E00E945B038091600088236E
:100B000041F0E1E6F0E080E08F5F91919111FCCF40
:100B100001C080E080935E01089583E080936901C5
:100B200080E00E945B0360E087EC90E00E9460033D
:100B300020E040E061E087ED90E00E9473030895BB
:100B400084E08093690180E00E945B0320E040E044
:100B500060E087EE90E00E94730320E040E061E0F7
:100B600086EF90E00E94730346E065E571E086E45D
:100B700095E00E94F7080895CF93C82F40E06FE0FA
:100B800081E00E94420360E08C2F0E948503CF9198
:100B9000089581E0809369010E94700880E00E94BE
:100BA0005B0320E040E060E081E091E00E9473039D
:100BB00020E040E061E08BE091E00E9473038091CF
:100BC0005D010E94BC050895CF93C82F20E04BE043
:100BD00061E08BE191E00E94730340E06BE081E013
:100BE0000E94420360E08C2F0E948503CF910895FC
:100BF00082E0809369010E94700880E00E945B039C
:100C000060E08EE191E00E94600320E040E061E05E
:100C10008FE291E00E94730380915B010E94E405E2
:100C200008958091540181112CC020E0409153011E
:100C300060E080E690E00E947303409153014423FA
:100C400039F0415020E060E08CE191E00E947303B4
:100C5000209153012F5F2093530140915E01332770
:100C600027FD309580E190E0841B9109821793075E
:100C70003CF581E08093540180E1841B8093530113
:100C800008954091530141504093530120E060E0AA
:100C900080E690E00E9473034091530180915E01D1
:100CA000480F20E060E08CE191E00E9473038091A6
:100CB0005301811105C01092540181E080935301CA
:100CC0000895CF92DF92EF92FF920E9416046B017B
:100CD0007C0140E062E080E00E94420340E0C70106
:100CE000B6010E94E0030E9436086B017C0140E0DF
:100CF00062E081E00E94420340E0C701B6010E9429
:100D0000E00340E068E080E00E9442030E94350476
:100D100060E00E94850360E08AE30E9410030E9465
:100D2000750460E00E94850360E08AE30E9410037E
:100D30000E94550460E00E94850340E068E081E085
:100D40000E9442030E94950460E00E94850360E0D7
:100D50008FE20E9410030E94B50460E00E948503A8
:100D600060E08FE20E9410030E94D40460E00E94C1
:100D70008503FF90EF90DF90CF90089585E08093FA
:100D8000690180E00E945B0320E040E060E08AE3CC
:100D900091E00E94730320E040E061E08DE391E088
:100DA0000E9473030E946106089580916901823058
:100DB00091F480915B01815080935B01811103C0AC
:100DC0000E94C90508950E94E40560915B0188E0D6
:100DD00090E00E942401089580E390E00E942C019D
:100DE0008230A9F486E090E00E942C0180935D019E
:100DF00087E090E00E942C0180935C0188E090E005
:100E00000E942C0180935B010E94F80508958130B7
:100E1000A9F486E090E00E942C0180935D0187E0B8
:100E200090E00E942C0180935C0188E090E00E9499
:100E30002C0180935B010E94C90508950E947805EA
:100E400010925D0110925B0110925C0108956F9207
:100E50007F928F929F92AF92BF92CF92DF92EF924A
:100E6000FF920F931F93CF93DF9308E610E0EC01FE
:100E70000F2EFEE6EF2EF0E0FF2EF02D0F2EFEE6F9
:100E8000AF2EF0E0BF2EF02D662463947724739488
:100E9000812C6E019880F80181918F0190E00E9471
:100EA0002C019812782C2196F70181917F01F6018F
:100EB00090819813682C0A151B0559F7711005C00D
:100EC00081E0611003C080E001C081E0DF91CF913B
:100ED0001F910F91FF90EF90DF90CF90BF90AF9058
:100EE0009F908F907F906F900895CF9380E00E94A5
:100EF0008B01C82F80ED8C0F8A30B8F440915201DD
:100F0000463008F05EC0465F20E060E080E491E09B
:100F10000E94730380915201E82FF0E0E45BFE4FE2
:100F2000C0838F5F809352014CC0CA3291F44091CC
:100F30005201442309F445C0475F20E060E08CE1A2
:100F400091E00E947303809152018150809352017D
:100F500038C0C332B1F580915201863091F58CE4EE
:100F600091E00E942707813019F40E948D0529C065
:100F700080915D018230D1F410925D0180915C011D
:100F80008B5F80935C0180935B01109252010E9401
:100F9000F80560915C0187E090E00E942401609177
:100FA0005B0188E090E00E94240105C08F5F809380
:100FB0005D010E94BC0560915D0186E090E00E94A9
:100FC0002401CF910895FF920F931F93CF93DF9346
:100FD000F82E09E910E0C8E9D0E0F80140816FEF90
:100FE00088810E94DE008F2D0E94410580E00E94D2
:100FF0004105F82EF801408160E088810E94DE0002
:101000008F2DDF91CF911F910F91FF900895CF9376
:10101000C82F0E94F304409199006FEF80919800CF
:101020000E94AE00C13039F480E80E94E30785E1F8
:101030000E94E30708C0C11106C080E80E94E307D0
:1010400084E00E94E307CF910895CF9382E00E944D
:10105000E307C82F81E00E94E3072C2F30E0322FF6
:101060002227A901482BCA01CF910895CF93DF937E
:101070000E942508EC016D2F772767FD7095872F5B
:10108000972F0E943A0AC7FF07C020E030E040E0F7
:101090005FE30E94400913C0C6FF07C020E030E0B4
:1010A00040E85EE30E9440090AC0C07CDD27CD2BEA
:1010B00031F020E030E040E45FE30E944009DF913E
:1010C000CF9108950E94D50608950E9411060895B3
:1010D00083E00E948D0885E698E00E9478080895D4
:1010E00088E20E948D0882E698E00E9488080895B0
:1010F000789413BE23B72D6023BF19BE28EC2CBFF4
:1011000029B7226029BF90936201809361010895FD
:101110009093620180936101089510926001809321
:101120005F0108951F920F920FB60F9211242F9313
:101130003F934F935F936F937F938F939F93AF935F
:10114000BF93EF93FF93809160018F5F8093600165
:1011500090915F01891307C0E0916101F0916201F4
:10116000099510926001FF91EF91BF91AF919F910E
:101170008F917F916F915F914F913F912F910F9040
:101180000FBE0F901F9018950F931F93009142016F
:1011900010914301209144013091450160E271EAD0
:1011A00087E090E0A90198010E94290B21503109A4
:1011B00040914601842F887090E0959587951AB8E4
:1011C00090B5906890BD50B590914701952B509186
:1011D0004801952B477F492B40BD29B930BD9AB1B5
:1011E0009869892B8AB978941F910F9108959093EB
:1011F0006801809367017093660160936501409375
:1012000064011092630108951F920F920FB60F921E
:1012100011242F933F934F935F936F937F938F93FB
:101220009F93AF93BF93EF93FF93E0916501F0918C
:1012300066019091630181E0890F809363012CB175
:10124000E90FF11D208390916401891307C0E0919B
:101250006701F0916801099510926301FF91EF9188
:10126000BF91AF919F918F917F916F915F914F91BE
:101270003F912F910F900FBE0F901F9018955058CF
:10128000BB27AA270ED048C139D130F03ED120F07B
:1012900031F49F3F11F41EF42EC10EF4E095E7FBEC
:1012A00024C1E92F4AD180F3BA1762077307840774
:1012B000950718F071F49EF562C10EF4E0950B2EBF
:1012C000BA2FA02D0B01B90190010C01CA01A00198
:1012D0001124FF27591B99F0593F50F4503E68F1F3
:1012E0001A16F040A22F232F342F4427585FF3CF34
:1012F000469537952795A795F0405395C9F77EF405
:101300001F16BA0B620B730B840BBAF09150A1F04D
:10131000FF0FBB1F661F771F881FC2F70EC0BA0FD3
:10132000621F731F841F48F4879577956795B7955B
:10133000F7959E3F08F0B3CF9395880F08F0992753
:10134000EE0F9795879508950CD0E6C0DED040F05B
:10135000D5D030F021F45F3F19F0C7C0511110C152
:10136000CAC0EBD098F39923C9F35523B1F3951B69
:10137000550BBB27AA2762177307840738F09F5FB6
:101380005F4F220F331F441FAA1FA9F333D00E2E25
:101390003AF0E0E830D091505040E695001CCAF792
:1013A00029D0FE2F27D0660F771F881FBB1F261757
:1013B00037074807AB07B0E809F0BB0B802DBF012A
:1013C000FF2793585F4F2AF09E3F510568F08DC06C
:1013D000D7C05F3FECF3983EDCF386957795679531
:1013E000B795F7959F5FC9F7880F911D96958795DB
:1013F00097F90895E1E0660F771F881FBB1F6217FA
:1014000073078407BA0720F0621B730B840BBA0BB7
:10141000EE1F88F7E095089598D088F09F5790F0D8
:10142000B92F9927B751A0F0D1F0660F771F881F09
:10143000991F1AF0BA95C9F712C0B13081F09FD048
:10144000B1E008959CC0672F782F8827B85F39F0E6
:10145000B93FCCF3869577956795B395D9F73EF468
:1014600090958095709561957F4F8F4F9F4F089510
:10147000E89409C097FB3EF490958095709561952E
:101480007F4F8F4F9F4F9923A9F0F92F96E9BB27E4
:101490009395F695879577956795B795F111F8CF60
:1014A000FAF4BB0F11F460FF1BC06F5F7F4F8F4FCB
:1014B0009F4F16C0882311F096E911C0772321F0C1
:1014C0009EE8872F762F05C0662371F096E8862F59
:1014D00070E060E02AF09A95660F771F881FDAF7B0
:1014E000880F9695879597F9089597F99F6780E8F3
:1014F00070E060E008959FEF80EC089500240A9466
:101500001616170618060906089500240A941216DE
:101510001306140605060895092E0394000C11F411
:10152000882352F0BB0F40F4BF2B11F460FF04C0BE
:101530006F5F7F4F8F4F9F4F089557FD9058440F17
:10154000551F59F05F3F71F04795880F97FB991F22
:1015500061F09F3F79F087950895121613061406DF
:10156000551FF2CF4695F1DF08C01616170618066C
:10157000991FF1CF86957105610508940895E89447
:10158000BB2766277727CB0197F908950BD0C4CFE7
:10159000B5DF28F0BADF18F0952309F0A6CFABCF5E
:1015A0001124EECFCADFA0F3959FD1F3950F50E041
:1015B000551F629FF001729FBB27F00DB11D639F05
:1015C000AA27F00DB11DAA1F649F6627B00DA11DAB
:1015D000661F829F2227B00DA11D621F739FB00D51
:1015E000A11D621F839FA00D611D221F749F3327C1
:1015F000A00D611D231F849F600D211D822F762F5A
:101600006A2F11249F5750408AF0E1F088234AF056
:10161000EE0FFF1FBB1F661F771F881F91505040A2
:10162000A9F79E3F510570F060CFAACF5F3FECF362
:10163000983EDCF3869577956795B795F795E7958E
:101640009F5FC1F7FE2B880F911D9695879597F99F
:101650000895A1E21A2EAA1BBB1BFD010DC0AA1FF3
:10166000BB1FEE1FFF1FA217B307E407F50720F00B
:10167000A21BB30BE40BF50B661F771F881F991F86
:101680001A9469F760957095809590959B01AC01CF
:0A169000BD01CF010895F894FFCFCB
:10169A0057656C636F6D6500000102030405303005
:1016AA00303030303132333435363738392A302316
:1016BA00031003200340038003080304028000028E
:1016CA000004000800F00180011001400120000917
:1016DA003D000480841E000040420F000520A1073F
:1016EA00000190D003000648E801000224F400003B
:1016FA0003C06878040400313A206368616E676544
:10170A0020706173732E00323A2073797374656D99
:10171A0020656E74727900456E746572206E657705
:10172A002070617373007573696E67205541525456
:10173A000070617373776F72643A00757365204B3A
:10174A0050442D2D547269616C3A0020200073793F
:10175A007374656D206973206C6F636B65640063D5
:10176A006F756E74696E67203A004C3A00543A00FD
:0A177A002A00802500000600080088
:00000001FF
